:020000021000EC
:1060000000400020B5EF0100F1EF0100F3EF0100C7
:106010000000000000000000000000000000000080
:10602000000000000000000000000000F5EF01008B
:106030000000000000000000F7EF0100F9EF010090
:10604000FBEF0100ED2502004DF20100FBEF010026
:10605000FBEF010000000000FBEF0100FBEF01007F
:10606000FBEF0100C907020045010200FBEF010040
:10607000FBEF0100FBEF0100FBEF0100FBEF010074
:10608000FBEF0100D5A90100FBEF0100FBEF0100D0
:1060900021AA0100FBEF0100C5990100FBEF0100FF
:1060A000FBEF0100FBEF010000000000000000001A
:1060B00000000000000000000000000000000000E0
:1060C00008B5054B054803331B1A062B03D9044BAF
:1060D000002B00D0984708BD5C2200205C220020E5
:1060E000000000000648074908B5091A8910CB0FBF
:1060F0005918491003D0044B002B00D0984708BD15
:106100005C2200205C2200200000000010B5074C3B
:106110002378002B09D1FFF7D3FF054B002B02D0CA
:10612000044800E000BF0123237010BD5C22002062
:1061300000000000CC53020008B5094B002B03D02F
:106140000848094900E000BF08480368002B02D155
:10615000FFF7C8FF08BD064B002BF9D09847F7E7BB
:1061600000000000CC5302006022002058220020D2
:1061700000000000144B002B00D1124B9D46402222
:1061800092029A1A924600218B460F461148124AF3
:10619000121A0DF091FB0D4B002B00D098470C4BC1
:1061A000002B00D098470020002104000D000B4870
:1061B0000DF004FB0DF042FB2000290008F0D6FA98
:1061C0000DF012FB0000080000400020000000005D
:1061D000000000005C2200208C33002015380200F3
:1061E00080B500AFBFF34F8F024B034ADA60BFF3B5
:1061F0004F8FFEE700ED00E00400FA0570DF704706
:10620000181CC04671DF7047181CC04672DF70470B
:10621000181CC04673DF7047181CC04674DF7047F7
:10622000181CC04675DF7047181CC04676DF7047E3
:10623000181CC04677DF7047181CC04678DF7047CF
:10624000181CC04679DF7047181CC0467ADF7047BB
:10625000181CC0467BDF7047181CC0467CDF7047A7
:10626000181CC0467DDF7047181CC0467EDF704793
:10627000181CC0467FDF7047181CC04680DF70477F
:10628000181CC04681DF7047181CC04682DF70476B
:10629000181CC04683DF7047181CC04684DF704757
:1062A000181CC046B0DF7047181CC046B1DF7047ED
:1062B000181CC046B2DF7047181CC04690DF7047FC
:1062C000181CC04691DF7047181CC04692DF70470B
:1062D000181CC04693DF7047181CC04694DF7047F7
:1062E000181CC04695DF7047181CC04696DF7047E3
:1062F000181CC04697DF7047181CC04698DF7047CF
:10630000181CC046A0DF7047181CC046A1DF7047AC
:10631000181CC046A2DF7047181CC046A3DF704798
:10632000181CC046A4DF7047181CC046A5DF704784
:10633000181CC046A6DF7047181CC046A7DF704770
:10634000181CC046A8DF7047181CC046A9DF70475C
:10635000181CC046AADF7047181CC04660DF704793
:10636000181CC04661DF7047181CC04662DF7047CA
:10637000181CC04663DF7047181CC04664DF7047B6
:10638000181CC04665DF7047181CC04666DF7047A2
:10639000181CC04667DF7047181CC04668DF70478E
:1063A000181CC04669DF7047181CC04623DF7047C1
:1063B000181CC04624DF7047181CC04625DF7047F4
:1063C000181CC04626DF7047181CC04627DF7047E0
:1063D000181CC04628DF7047181CC04629DF7047CC
:1063E000181CC0462ADF7047181CC0462BDF7047B8
:1063F000181CC0462CDF7047181CC0462DDF7047A4
:10640000181CC0462EDF7047181CC0462FDF70478F
:10641000181CC04630DF7047181CC04631DF70477B
:10642000181CC04632DF7047181CC04635DF704765
:10643000181CC04636DF7047181CC04633DF704753
:10644000181CC04634DF7047181CC04637DF704741
:10645000181CC04638DF7047181CC04639DF70472B
:10646000181CC0463ADF7047181CC0463BDF704717
:10647000181CC0463CDF7047181CC0463DDF704703
:10648000181CC0463EDF7047181CC0463FDF7047EF
:10649000181CC04641DF7047181CC04642DF7047D9
:1064A000181CC04643DF7047181CC04640DF7047C9
:1064B000181CC04644DF7047181CC04645DF7047B3
:1064C000181CC04646DF7047181CC04647DF70479F
:1064D000181CC04648DF7047181CC04649DF70478B
:1064E000181CC0464ADF7047181CC0464BDF704777
:1064F000181CC0464CDF7047181CC0464DDF704763
:10650000181CC04651DF7047181CC04652DF704748
:10651000181CC04621DF7047181CC04620DF70479A
:10652000181CC04622DF7047181CC0464EDF70475B
:10653000181CC0464FDF7047181CC04650DF70471C
:10654000181CC04610DF7047181CC04611DF70478A
:10655000181CC04612DF7047181CC04613DF704776
:10656000181CC04680B584B000AFF860B9607A608E
:10657000FFF736FEFEE7C04680B582B000AF021CD2
:106580003960BB1D1A80BB1D1A8805493B68081C71
:10659000111C1A1CFFF7E6FFBD4602B080BDC046C5
:1065A000EFBEADDE80B582B000AF78607A68044B94
:1065B000101C92211A1CFFF7D5FFBD4602B080BD0A
:1065C000604E020080B582B000AF78607A68044BFC
:1065D000101C9C211A1CFFF7C5FFBD4602B080BDF0
:1065E000604E020080B586B000AFF860B9607A6096
:1065F0007B687B617B69002B06D07A69054B101C98
:10660000AC211A1CFFF7AEFF0023181CBD4606B0D4
:1066100080BDC046604E020080B588B000AF05F076
:106620003DF9031CFB61FB69BB61BB69002B06D014
:10663000BA69304B101CBA211A1CFFF793FF0C23C8
:10664000FB1800221A700C23FB18181C06F0DEFB46
:10665000031CFB61FB697B617B69002B06D07A69B7
:10666000244B101CC0211A1CFFF77CFF3B1C063377
:10667000181C002106220DF01FF93B1C1E22DA8097
:106680003B1C1A7A01210A431A723B1C1A7A022116
:106690008A431A723B1C1A7A1C218A43111C0C2251
:1066A0000A431A723B1C1A7A20218A431A723B1C35
:1066B00007225A723B1C10229A723B1C0E4A1A6027
:1066C0003B1C01221A710D4A3B1C101C191C06F0C0
:1066D00053FC031CFB61FB693B613B69002B06D04B
:1066E0003A69044B101CCF211A1CFFF73BFFBD4633
:1066F00008B080BD604E0200E565010094220020D4
:1067000080B588B000AF3B1C1A780F218A43111C5A
:1067100001220A431A703B1C1A780F210A40111CEF
:1067200010220A431A703A1C2F4B101C191C092204
:10673000FFF794FD031CFB61FB69BB61BB69002B88
:1067400006D0BA69294B101CE0211A1CFFF70AFF7A
:106750000020FFF773FD031CFB61FB697B617B6914
:10676000002B06D07A69214B101CE3211A1CFFF77D
:10677000F9FE3B1D181C002108220DF09DF83B1D61
:1067800010221A803B1D20225A803B1D00229A8035
:106790003B1DC8225200DA803B1D181CFFF756FD36
:1067A000031CFB61FB693B613B69002B06D03A6926
:1067B0000E4B101CED211A1CFFF7D4FE0C235B427C
:1067C000181CFFF737FD031CFB61FB69FB60FB68CE
:1067D000002B06D0FA68054B101CF0211A1CFFF79D
:1067E000C1FEBD4608B080BD704E0200604E020082
:1067F00080B592B000AFFB1D06221A70BB1DF422BB
:106800001A703A1C2D4B111C1A1C0423081C111C55
:106810001A1C0DF048F80823FB18181C0021382218
:106820000DF04AF80823FB1802221A700823FB18FF
:1068300001229A700823FB1801229A800823FB1872
:10684000FA1D9A600823FB18BA1DDA600823FB18AA
:1068500001221A820823FB183A1C5A610823FB18EC
:10686000181C002101F066FD031C7B647B6C3B64FB
:106870003B6C002B09D0396C1423FF331A1C104BCE
:10688000081C111C1A1CFFF76DFE0E4B181C002172
:1068900014220DF011F80B4B00221A70094B002244
:1068A0005A60084B00221A72064BC8221A82054B06
:1068B00000225A82BD4612B080BDC0467C4E020006
:1068C000604E02008022002080B598B000AF3A1CD4
:1068D000374B111C1A1C1023081C111C1A1C0CF01D
:1068E000E2FF3A1C1323FB18101C191CFFF742FD92
:1068F000031CFB65FB6DBB65BB6D002B09D0B96D3F
:106900003223FF331A1C2B4B081C111C1A1CFFF7D7
:1069100029FE1323FB181B78181C00F08DFB142391
:10692000FB18181C002140220CF0C6FF1423FA1893
:10693000214B101C191C02F053F91423FB183C22A4
:10694000995C0F208143081C0121014399541423B1
:10695000FB183C22995C0F200140081C10210143C8
:1069600099541423FB183D22995C0F2081439954BC
:106970001423FB183D22995C0F20014099541423E5
:10698000FB18181C02F006FC031CFB65FB6D7B6505
:106990007B6D002B08D0796D9F235A00054B081C96
:1069A000111C1A1CFFF7DEFDBD4618B080BDC046A5
:1069B0008C4E0200604E0200804E020080B500AF97
:1069C000104B1E221A800F4B9A7801210A439A70AD
:1069D0000C4B9A7802218A439A700A4B9A781C21B0
:1069E0008A43111C0C220A439A70064B9A78202184
:1069F0008A439A70034B0722DA70024B10221A71F5
:106A0000BD4680BD7822002080B58AB000AF3B1D16
:106A1000181C00211C220CF04FFF3B1D00221A60A5
:106A20003B1DA02292025A603B1DA02292029A6056
:106A30003B1D03221A733B1D0022DA813B1D0122FC
:106A40001A743B1D00225A613B1D0D4A9A613B1D81
:106A5000181C01F055FE031C7B627B6A3B623B6A9B
:106A6000002B09D0396A6423FF331A1C054B081C1C
:106A7000111C1A1CFFF776FDBD460AB080BDC0464A
:106A8000A5650100604E020080B588B000AF2B4BB9
:106A90000020191C5022002302F012FF031CFB618E
:106AA000FB69BB61BB69002B09D0B9697223FF3355
:106AB0001A1C234B081C111C1A1CFFF753FD3B1C0E
:106AC0001A7801210A431A703B1C181CFFF746FC78
:106AD0003B1D181CFFF796FB3B1D0020191CFFF700
:106AE0008DFB184B181C02F045FF031C7B617B6972
:106AF0003B613B69002B09D039697E23FF331A1CA7
:106B00000F4B081C111C1A1CFFF72CFD0E4B181CF8
:106B100002F044FF031C7B617B69FB60FB68002B78
:106B200009D0F9688223FF331A1C054B081C111C7D
:106B30001A1CFFF717FDBD4608B080BD9822002043
:106B4000604E0200296C0100596C010080B582B0D2
:106B500000AF0B4B181CFFF75DFB031C7B607B68D1
:106B60003B603B68002B08D03968C8235A00054BAE
:106B7000081C111C1A1CFFF7F5FCBD4602B080BDB5
:106B800080220020604E020080B582B000AFFFF787
:106B900045FB031C7B607B683B603B68002B08D097
:106BA0003968CC235A00044B081C111C1A1CFFF72F
:106BB000D9FCBD4602B080BD604E020080B582B0F7
:106BC00000AFFFF7C3FC031C7B607B683B603B6846
:106BD000002B08D03968D0235A00044B081C111C24
:106BE0001A1CFFF7BFFCBD4602B080BD604E02001C
:106BF00080B582B000AF78607B681B88112B04D011
:106C0000192B05D0102B0BD00BE0FFF79FFF08E0EE
:106C10007B689B79002B02D1FFF798FF01E000E031
:106C2000C046BD4602B080BD80B582B000AF78607E
:106C30007B68181C07F04EF87B68181C01F0BCFE3E
:106C40007B68181C00F026F97B68181CFFF7D0FF42
:106C5000BD4602B080BDC04680B582B000AF78604E
:106C60007B68181C04F006FB7B68181C00F050FDC4
:106C7000BD4602B080BDC04690B585B002AF174C8E
:106C800000230093002004210622231C03F0CEFEE3
:106C9000031C7B607B683B603B68002B08D0396835
:106CA000F6235A000E4B081C111C1A1CFFF75AFC45
:106CB000FFF7EAFEFFF7B0FCFFF722FDFFF798FDB4
:106CC000FFF702FEFFF7A0FEFFF778FEFFF73EFF9B
:106CD00000F032FD181CBD4603B090BDE822002034
:106CE000604E020070DF7047181CC04671DF7047AD
:106CF000181CC04672DF7047181CC04673DF70470F
:106D0000181CC04674DF7047181CC04675DF7047FA
:106D1000181CC04676DF7047181CC04677DF7047E6
:106D2000181CC04678DF7047181CC04679DF7047D2
:106D3000181CC0467ADF7047181CC0467BDF7047BE
:106D4000181CC0467CDF7047181CC0467DDF7047AA
:106D5000181CC0467EDF7047181CC0467FDF704796
:106D6000181CC04680DF7047181CC04681DF704782
:106D7000181CC04682DF7047181CC04683DF70476E
:106D8000181CC04684DF7047181CC046B0DF70472F
:106D9000181CC046B1DF7047181CC046B2DF7047F0
:106DA000181CC04690DF7047181CC04691DF704722
:106DB000181CC04692DF7047181CC04693DF70470E
:106DC000181CC04694DF7047181CC04695DF7047FA
:106DD000181CC04696DF7047181CC04697DF7047E6
:106DE000181CC04698DF7047181CC046A0DF7047CB
:106DF000181CC046A1DF7047181CC046A2DF7047B0
:106E0000181CC046A3DF7047181CC046A4DF70479B
:106E1000181CC046A5DF7047181CC046A6DF704787
:106E2000181CC046A7DF7047181CC046A8DF704773
:106E3000181CC046A9DF7047181CC046AADF70475F
:106E4000181CC04660DF7047181CC04661DF7047E1
:106E5000181CC04662DF7047181CC04663DF7047CD
:106E6000181CC04664DF7047181CC04665DF7047B9
:106E7000181CC04666DF7047181CC04667DF7047A5
:106E8000181CC04668DF7047181CC04669DF704791
:106E9000181CC04690B585B000AF78607B681B8831
:106EA000112B09D0502B0CD0102B00D0ACE07B68FC
:106EB0009A88574B1A80A7E0554B012252421A80FC
:106EC000A2E07B680633BB60BB681A88514B1B8805
:106ED0009A421AD1504B1B7801225340DBB2002B4F
:106EE00013D0BB681A331A1CBB681B8B1C1C4B4B82
:106EF000181C111C221C0CF0D6FCBB681B8BDAB2D0
:106F0000474B1A70444B01221A70BB681A88454BD4
:106F10001B889A4200D076E00F23FB1800221A70DB
:106F2000BB689B7EDBB25BB2002B30DABB689B7E1A
:106F300060221340DAB23C4B1A70BB689B7E1A1C6D
:106F40001F2313405A1C394B1A60384B1B68132BF4
:106F50000CDDBB681B33364A101C191C13220CF0C5
:106F6000A2FC0F23FB1800221A702DE0BB681B3314
:106F70001A1C2E4B1B681C1C2D4B181C111C221C90
:106F80000CF091FC0F23FB1801221A701CE0BB6867
:106F90009B7E1A1C60231340234A1278934213D11C
:106FA000214BFF221A70BB681B331A1C1F4B1B6836
:106FB000133B1C1C1F4B181C111C221C0CF073FCD7
:106FC0000F23FB1801221A700F23FB181B78002BCC
:106FD00019D0114B1B7801225340DBB2002B12D089
:106FE000124B1B681C1C0D4A114B101C191C221C37
:106FF0000CF059FC0D4B1B68DAB2094B1A70064BAA
:1070000001221A70FFE7C046BD4605B090BDC046DC
:107010000420002098250020B0250020B62500205F
:10702000B4250020A02500208C200020E025002091
:10703000E4250020F725002080B588B000AF021CB1
:10704000FB1D1A701123FB18FF221A701823FB185E
:107050007F4A1A801823FB18FA1D12789A70182399
:10706000FA181223FB180120111C1A1CFFF7BEFE90
:10707000031CFB61FB69002B01D0FB69E4E00C23DE
:10708000FB18181C002103220CF016FC0C23FB1823
:107090001A780F218A43111C01220A431A700C230B
:1070A000FB181A780F210A40111C10220A431A708B
:1070B0000C23FB185A780F218A43111C01220A4322
:1070C0005A700C23FB185A780F210A40111C102209
:1070D0000A435A700C23FB189A7806218A43111C24
:1070E00002220A439A705B4B0C22BA185A6114238D
:1070F000FB18FA1D12789A701423FB18564A1A804E
:10710000564B1422BA181A60544B1122BA181A613D
:10711000524B01221A811223FB1818884D494F4AFD
:107120004F4BFFF76BFE031CFB61FB69002B01D08B
:10713000FB6989E00C23FB18181C002103220CF0CA
:10714000BBFB444B00225A611423FB18FA1D127832
:107150009A701423FB18434A1A80434B1422BA181E
:107160001A60414B1122BA181A613F4B01221A8151
:107170001223FB1818883D493B4A3D4BFFF73EFE62
:10718000031CFB61FB69002B01D0FB695CE00C2355
:10719000FB18181C002103220CF08EFB0C23FB189B
:1071A0001A780F218A43111C01220A431A700C23FA
:1071B000FB181A780F210A40111C10220A431A707A
:1071C0000C23FB185A780F218A43111C01220A4311
:1071D0005A700C23FB185A780F210A40111C1022F8
:1071E0000A435A700C23FB189A7806218A43111C13
:1071F00002220A439A701F4B0C22BA185A611423B8
:10720000FB18FA1D12789A701423FB188122920041
:107210001A80154B1422BA181A60134B1122BA188F
:107220001A61114B01221A811223FB181888114987
:107230000D4A114BFFF7E2FD031CFB61FB69002BBC
:1072400001D0FB6900E00023181CBD4608B080BDDA
:10725000010200000820002002020000602000203F
:107260009825002003020000782000202420002020
:10727000A025002040200020A825002080B500AFD8
:10728000024B1B78181CBD4680BDC046B0250020AF
:1072900080B500AF014B181CBD4680BDB425002051
:1072A00080B582B000AF7860024B00221A70BD46F4
:1072B00002B080BDB025002090B589B000AF7860E5
:1072C0007B681B789AB20E23FB181A80664B1B88CA
:1072D000664A934200D1C4E00E23FB181B88142B8E
:1072E00003D90E23FB1814221A801023FB18181C34
:1072F000002110220CF0E0FA1023FB1801229A70F2
:107300005B4B1A881023FB181A807B689A1C102389
:10731000FB18DA601023FB180E22BA189A60524B41
:107320001A881023FB18101C191CFFF777FD7B68C7
:107330001B78132B05D87B681B789BB201339AB25C
:1073400000E014220E23FB181A804A4B1B68DBB2A4
:107350005B01DBB260221340DAB27B681B78013B31
:10736000DBB21F210B40DBB21343DBB2802252425F
:107370001343DAB2404B1A707B689A1C0E23FB1839
:107380001B881C1C3D4B181C111C221C0CF08BFA7A
:107390001023FB18181C002110220CF08DFA10236A
:1073A000FB1801229A70364B1A881023FB181A809A
:1073B0001023FB18304ADA601023FB180E22BA188B
:1073C0009A60294B1A881023FB18101C191CFFF710
:1073D00025FD7B681B78132B3ED97B681B789BB2FD
:1073E000123B9AB20E23FB181A80224B1B685B01DA
:1073F000DBB260221340DAB21F4B1A707B68153380
:107400001A1C0E23FB181B881C1C1C4B181C111C5F
:10741000221C0CF048FA1023FB18181C0021102223
:107420000CF04AFA1023FB1801229A70144B1A88A8
:107430001023FB181A801023FB180F4ADA60102360
:10744000FB180E22BA189A60074B1A881023FB18F3
:10745000101C191CFFF7E2FC064B1B685A1C054B5D
:107460001A60BD4609B090BD04200020FFFF000057
:107470009825002004260020082600200926002048
:10748000A825002080B582B000AF021CFB1D1A7039
:10749000064BFA1D1278111C1F220A40012191404F
:1074A0000A1C1A60BD4602B080BDC04600E100E083
:1074B00023DF7047181CC04624DF7047181CC046E5
:1074C00025DF7047181CC04626DF7047181CC046D1
:1074D00027DF7047181CC04628DF7047181CC046BD
:1074E00029DF7047181CC0462ADF7047181CC046A9
:1074F0002BDF7047181CC0462CDF7047181CC04695
:107500002DDF7047181CC0462EDF7047181CC04680
:107510002FDF7047181CC04630DF7047181CC0466C
:1075200031DF7047181CC04632DF7047181CC04658
:1075300035DF7047181CC04636DF7047181CC04640
:1075400033DF7047181CC04634DF7047181CC04634
:1075500037DF7047181CC04638DF7047181CC0461C
:1075600039DF7047181CC0463ADF7047181CC04608
:107570003BDF7047181CC0463CDF7047181CC046F4
:107580003DDF7047181CC0463EDF7047181CC046E0
:107590003FDF7047181CC04641DF7047181CC046CB
:1075A00042DF7047181CC04643DF7047181CC046B6
:1075B00040DF7047181CC04644DF7047181CC046A7
:1075C00045DF7047181CC04646DF7047181CC04690
:1075D00047DF7047181CC04648DF7047181CC0467C
:1075E00049DF7047181CC0464ADF7047181CC04668
:1075F0004BDF7047181CC0464CDF7047181CC04654
:107600004DDF7047181CC04651DF7047181CC0463C
:1076100052DF7047181CC04621DF7047181CC04657
:1076200020DF7047181CC04622DF7047181CC04678
:107630004EDF7047181CC0464FDF7047181CC0460D
:1076400050DF7047181CC04680B582B000AF021CE6
:10765000FB1D1A702A4B00221A70FB1D1B78042B8D
:1076600047D89A00274BD3181B689F462649C12349
:107670009B0080225202CA50234AA823DB00C82163
:10768000D1500820FFF7FEFE0BF0C8F81C4B00227B
:107690001A702FE00AF0B0FF194B00221A7029E08F
:1076A000194AA0235B00D358012B0CD1164AA02302
:1076B0005B000021D150124BFA2292005A60104B0D
:1076C00001221A7016E015E00BF0B0F90C4B0F4ACE
:1076D0005A600B4B03221A700CE00B490A4AA8238C
:1076E000DB00D358FA2292009A18A823DB00CA5074
:1076F00000E0C046024B181CBD4602B080BDC0462B
:107700001C2600209C4E020000800040902000209B
:1077100080B582B000AF78607B68043B012B04D851
:10772000044B181CFFF78CFF00E0C046BD4602B0BA
:1077300080BDC0469020002080B500AF044B181CCF
:10774000FFF776FF034B181CFFF77AFFBD4680BD9D
:10775000497601009020002070DF7047181CC04659
:1077600071DF7047181CC04672DF7047181CC04696
:1077700073DF7047181CC04674DF7047181CC04682
:1077800075DF7047181CC04676DF7047181CC0466E
:1077900077DF7047181CC04678DF7047181CC0465A
:1077A00079DF7047181CC0467ADF7047181CC04646
:1077B0007BDF7047181CC0467CDF7047181CC04632
:1077C0007DDF7047181CC0467EDF7047181CC0461E
:1077D0007FDF7047181CC04680DF7047181CC0460A
:1077E00081DF7047181CC04682DF7047181CC046F6
:1077F00083DF7047181CC04684DF7047181CC046E2
:10780000B0DF7047181CC046B1DF7047181CC04677
:10781000B2DF7047181CC04690DF7047181CC04686
:1078200091DF7047181CC04692DF7047181CC04695
:1078300093DF7047181CC04694DF7047181CC04681
:1078400095DF7047181CC04696DF7047181CC0466D
:1078500097DF7047181CC04698DF7047181CC04659
:10786000A0DF7047181CC046A1DF7047181CC04637
:10787000A2DF7047181CC046A3DF7047181CC04623
:10788000A4DF7047181CC046A5DF7047181CC0460F
:10789000A6DF7047181CC046A7DF7047181CC046FB
:1078A000A8DF7047181CC046A9DF7047181CC046E7
:1078B000AADF7047181CC04660DF7047181CC0461E
:1078C00061DF7047181CC04662DF7047181CC04655
:1078D00063DF7047181CC04664DF7047181CC04641
:1078E00065DF7047181CC04666DF7047181CC0462D
:1078F00067DF7047181CC04668DF7047181CC04619
:1079000069DF7047181CC04680B582B000AF021C0A
:107910003960BB1D1A80BB1D1B88DAB23B681A7028
:107920003B680133BA1D1288120A92B2D2B21A70A1
:107930000223181CBD4602B080BDC04680B588B089
:1079400000AFF860B9607A601C23FB187A6812787F
:107950001A701C23FB181B7802331F2B04DCFB68F6
:107960005B7802331F2B01DD0C2380E01C23FB1806
:107970001B789AB21E23FB181D218A1A1A8016231F
:10798000FB181E22BA1812881A801C23FB181B78B9
:107990000233BA68D2181623FB18101C191CFFF703
:1079A0000FFF031CBB61BB69002B01D0BB695EE00C
:1079B000FB681B78022B12D11623FB181B881E2292
:1079C000BA1812889A420AD31D23FB1809221A708A
:1079D0001E23FB181622BA1812881A801BE01D23DA
:1079E000FB1808221A70FB685B78002B0DD0FB682F
:1079F0005B789BB21E22BA1812889A4205D3FB68A4
:107A00005A781E23FB181A8005E01E23FB18162245
:107A1000BA1812881A801C23FB181B781C22BA186B
:107A2000591C11701A1CBB689B181E22BA181288A8
:107A3000D2B20132D2B21A701C23FB181B781C225E
:107A4000BA18591C11701A1CBB689B181D22BA1851
:107A500012781A707B681A781E23FB181B88DBB219
:107A6000D318DBB20233DAB27B681A700023181C19
:107A7000BD4608B080BDC04680B584B000AF786018
:107A800039603B681B7804331F2B01DD0C2336E083
:107A90000A23FB18181CFFF783FE031CFB60FB681E
:107AA000002B01D0FB682AE03B681B785A1CD1B23E
:107AB0003A6811701A1C7B689B1803221A703B6885
:107AC0001B785A1CD1B23A6811701A1C7B689B183B
:107AD00019221A700A23FB181A883B681B78191C94
:107AE0007B685B18101C191CFFF70EFF031C1A1C87
:107AF0003B681B789B18DAB23B681A700023181C8D
:107B0000BD4604B080BDC04680B584B000AFF8600B
:107B10007A603B600B23FB180A1C1A70FB685B68D9
:107B2000002B01D107233DE03B681B780233FA6844
:107B300012889B181F2B01DD0C2333E03B681B7858
:107B40005A1CD1B23A6811701A1C7B689B18FA68EB
:107B50001288D2B20132D2B21A703B681B785A1C1A
:107B6000D1B23A6811701A1C7B689B180B22BA18A4
:107B700012781A703B681B781A1C7B689918FB688E
:107B80005A68FB681B88081C111C1A1C0BF08BFE22
:107B90003B681A78FB681B88DBB2D318DAB23B6803
:107BA0001A700023181CBD4604B080BD80B584B097
:107BB00000AFB9607A600F23FB18021C1A707B6853
:107BC0001B7803331F2B01DD0C2323E07B681B781C
:107BD0005A1CD1B27A6811701A1CBB689B18022219
:107BE0001A707B681B785A1CD1B27A6811701A1C03
:107BF000BB689B180A221A707B681B785A1CD1B28A
:107C00007A6811701A1CBB689B180F22BA18127878
:107C10001A700023181CBD4604B080BD80B58AB020
:107C200000AFF860081C111C7B600B23FB18021CC2
:107C30001A700A23FB180A1C1A702323FB1800224F
:107C40001A702223FB183A6B12781A7000237B6299
:107C500080E0FB685A687B6A9B00D3181422BA182C
:107C6000111C1A1C0423081C111C1A1C0BF01BFEEF
:107C70001423FA181A23FB18101C191C0022FFF7F2
:107C80002FFE031CFB61FB69002B01D0FB697DE02B
:107C90001A23FB181B780A22BA1812789A4256D176
:107CA0002323FB181B78002B01D0002200E00222C6
:107CB0001B23FB181A703B6B1B781A1C1A23FB182A
:107CC0001B78D2181B23FB181B78D3181F2B01DD40
:107CD0000C235BE02323FB181B7801225340DBB20B
:107CE000002B16D03B6B1B780133DAB23B6B1A705A
:107CF0003B6B1B785A1CD1B23A6B11701A1C7B6813
:107D00009B180B22BA1812781A702323FB18012231
:107D10001A703B6B1B781A1C7B689B181422B918CD
:107D20001A22BA18081C111C1A1CFFF7D9FD031CD3
:107D3000FB61FB69002B01D0FB6927E03B6B1A78E4
:107D40001A23FB181B78D318DAB23B6B1A707B6AC4
:107D500001337B62FB681B881A1E7B6A9A4200DD36
:107D600077E72323FB181B78002B0ED02223FB1868
:107D70001B787A68D3183A6B11782222BA181278D5
:107D80008A1AD2B2013AD2B21A700023181CBD4628
:107D90000AB080BD90B589B002AFF860081C111C14
:107DA0007B600B23FB18021C1A700A23FB180A1CA9
:107DB0001A70F9680B23FB181A787C68BB6A009369
:107DC000081C111C0222231CFFF728FF031C7B61E7
:107DD0007B69002B01D07B6914E0F9680A23FB184A
:107DE0001A787C68BB6A0093081C111C1022231CA3
:107DF000FFF714FF031C7B617B69002B01D07B69BB
:107E000000E00023181CBD4607B090BD80B582B0CD
:107E100000AF78607B681B88052B0AD97B681A88BD
:107E2000C8231B019A4206D97B681B88164A9342D5
:107E300001D0072323E07B685B88052B0AD97B6888
:107E40005A88C8231B019A4206D97B685B880E4A70
:107E5000934201D0072312E07B681B880A4A9342B1
:107E60000CD07B685B88084A934207D07B681A88ED
:107E70007B685B889A4201D9072300E00023181C25
:107E8000BD4602B080BDC046FFFF000080B586B091
:107E900000AFF860B9607A607B681B7806331F2BEF
:107EA00001D90C2347E0FB68181CFFF7AFFF031C48
:107EB0007B617B69002B01D07B693CE07B681B7890
:107EC0005A1CD1B27A6811701A1CBB689B18052223
:107ED0001A707B681B785A1CD1B27A6811701A1C10
:107EE000BB689B1812221A70FB681A887B681B7883
:107EF000191CBB685B18101C191CFFF705FD031C3F
:107F00001A1C7B681B789B18DAB27B681A70FB68B6
:107F10005A887B681B78191CBB685B18101C191CDD
:107F2000FFF7F2FC031C1A1C7B681B789B18DAB263
:107F30007B681A700023181CBD4606B080BDC04681
:107F400080B586B000AFF860B9607A60FB689B8846
:107F5000DAB21723FB1802321A707B681B789A1C5E
:107F60001723FB181B78D3181F2B01DD0C234EE0C1
:107F70007B681B785A1CD1B27A6811701A1CBB68D6
:107F80009B181722BA1812780132D2B21A707B6885
:107F90001B785A1CD1B27A6811701A1CBB689B18E6
:107FA000FF221A70FB681A887B681B78191CBB6853
:107FB0005B18101C191CFFF7A7FC031C1A1C7B681C
:107FC0001B789B18DAB27B681A70FB689B88002BC1
:107FD0001CD0FB689B68002B01D1072317E07B684E
:107FE0001B781A1CBB689918FB689A68FB689B8809
:107FF000081C111C1A1C0BF056FC7B681A78FB68D5
:108000009B88DBB2D318DAB27B681A700023181C85
:10801000BD4606B080BDC04680B588B000AFF860F0
:10802000B9607A60FB681B6B002B01D1072374E0F9
:108030001F23FB1800221A7066E0FB68196B1F23D0
:10804000FB181A78131C5B009B189B00CB18BB61B4
:10805000BB699B88DAB21723FB1802321A707B685F
:108060001B785A1CD1B27A6811701A1CBB689B1815
:108070001722BA1812780132D2B21A707B681B78B4
:108080005A1CD1B27A6811701A1CBB689B18162250
:108090001A70BB691A887B681B78191CBB685B184F
:1080A000101C191CFFF730FC031C1A1C7B681B7882
:1080B0009B18DAB27B681A70BB699B88002B1CD0B6
:1080C000BB699B68002B01D1072326E07B681B78E6
:1080D0001A1CBB689918BB699A68BB699B88081C05
:1080E000111C1A1C0BF0DFFB7B681A78BB699B889C
:1080F000DBB2D318DAB27B681A701F23FB181A7828
:108100001F23FB1801321A70FB6834229B5C1F226C
:10811000BA1812789A4290D30023181CBD4608B0B2
:1081200080BDC04690B589B002AFF860B9607A6092
:1081300000237B617B6800221A70FB681B78002B90
:108140000ED0F968BA687B68081C111C1A1CFFF76E
:10815000F5FB031C7B617B69002B01D07B69BBE0D5
:10816000FB689B78002B0CD0BA687B68101C191C2C
:10817000FFF782FC031C7B617B69002B01D07B69CC
:10818000AAE0FB689B88002B0ED0FB68191DBA681B
:108190007B68081C0121FFF7B7FC031C7B617B692E
:1081A000002B01D07B6997E0FB68DB68002B11D0C6
:1081B000FB68DB681B7859B2BA687B68081C111C25
:1081C0001A1CFFF7F3FC031C7B617B69002B01D0B9
:1081D0007B6981E0FB681B8A002B12D0FB6810339F
:1081E0001A1CBC687B680093101C02210622231C09
:1081F000FFF7D0FD031C7B617B69002B01D07B69FD
:108200006AE0FB681B8B002B12D0FB6818331A1C2A
:10821000BC687B680093101C03210722231CFFF716
:10822000B9FD031C7B617B69002B01D07B6953E0A6
:10823000FB681B8C002B12D0FB6820331A1CBC6817
:108240007B680093101C14211522231CFFF7A2FD4C
:10825000031C7B617B69002B01D07B693CE0FB68E0
:108260009B6A002B0FD0FB68996ABA687B68081C70
:10827000111C1A1CFFF70AFE031C7B617B69002B93
:1082800001D07B6928E0FB68DB6A002B0FD0FB681C
:10829000D96ABA687B68081C111C1A1CFFF750FECB
:1082A000031C7B617B69002B01D07B6914E0FB68B8
:1082B00034229B5C002B0ED0F968BA687B68081CDE
:1082C000111C1A1CFFF7A8FE031C7B617B69002BA5
:1082D00001D07B6900E07B69181CBD4607B090BDEA
:1082E00080B582B000AF78607B689B88002B0AD095
:1082F0007B689B68002B06D07B689B681B781A1CE8
:108300000423134001D1072300E00023181CBD46BD
:1083100002B080BD80B582B000AF78607B689B887A
:10832000002B01D0072300E00023181CBD4602B03B
:1083300080BDC04680B596B000AF786039604B23F1
:10834000FB1800221A704A23FB1800221A707B685F
:10835000002B1FD07B68181CFFF7C2FF031CFB64B7
:10836000FB6C002B01D0FB6C46E079682823FA18DF
:108370004B23FB18081C111C1A1CFFF7D3FE031C0F
:10838000FB64FB6C002B01D0FB6C35E02823FB1851
:108390007B6501E000237B653B68002B1FD03B68B9
:1083A000181CFFF7B7FF031CFB64FB6C002B01D00C
:1083B000FB6C21E039680823FA184A23FB18081CD3
:1083C000111C1A1CFFF7AEFE031CFB64FB6C002B98
:1083D00001D0FB6C10E00823FB183B6501E0002393
:1083E0003B654B23FB1819784A23FB181B78786DE3
:1083F0003A6DFFF7B9F9031C181CBD4616B080BDD5
:1084000070DF7047181CC04671DF7047181CC046EB
:1084100072DF7047181CC04673DF7047181CC046D7
:1084200074DF7047181CC04675DF7047181CC046C3
:1084300076DF7047181CC04677DF7047181CC046AF
:1084400078DF7047181CC04679DF7047181CC0469B
:108450007ADF7047181CC0467BDF7047181CC04687
:108460007CDF7047181CC0467DDF7047181CC04673
:108470007EDF7047181CC0467FDF7047181CC0465F
:1084800080DF7047181CC04681DF7047181CC0464B
:1084900082DF7047181CC04683DF7047181CC04637
:1084A00084DF7047181CC046B0DF7047181CC046F8
:1084B000B1DF7047181CC046B2DF7047181CC046B9
:1084C00090DF7047181CC04691DF7047181CC046EB
:1084D00092DF7047181CC04693DF7047181CC046D7
:1084E00094DF7047181CC04695DF7047181CC046C3
:1084F00096DF7047181CC04697DF7047181CC046AF
:1085000098DF7047181CC046A0DF7047181CC04693
:10851000A1DF7047181CC046A2DF7047181CC04678
:10852000A3DF7047181CC046A4DF7047181CC04664
:10853000A5DF7047181CC046A6DF7047181CC04650
:10854000A7DF7047181CC046A8DF7047181CC0463C
:10855000A9DF7047181CC046AADF7047181CC04628
:1085600060DF7047181CC04661DF7047181CC046AA
:1085700062DF7047181CC04663DF7047181CC04696
:1085800064DF7047181CC04665DF7047181CC04682
:1085900066DF7047181CC04667DF7047181CC0466E
:1085A00068DF7047181CC04669DF7047181CC0465A
:1085B00080B582B000AF78607B681B789AB27B6828
:1085C00001331B781B029BB213439BB29BB2181C56
:1085D000BD4602B080BDC04690B585B000AF7860A2
:1085E0000E23FC187B68181CFFF7E2FF031C238096
:1085F0000E23FB181B88012213405A1E9341DBB245
:10860000181CBD4605B090BD80B582B000AF786043
:108610007B685A88084B1B889A4207D37B685A8824
:10862000054B5B889A4201D8012300E00023181C07
:10863000BD4602B080BDC0464026002080B586B051
:1086400000AF7860294B1B88294A93424BD0294BB5
:108650001B780133DAB2274B1A70274B1A7B254B54
:108660001B789A4216D3214B1A88244B101C191CD4
:10867000FFF7DAFE031C7B617B69002B09D01E4BE0
:108680009B69002B05D01C4B9B697A69101C98478D
:1086900029E028E0174B00221A70174B1B7C002B97
:1086A00013D0124B1B88181C3B21FFF7C1FE031C83
:1086B0003B613B69002B08D00F4B9B69002B04D01A
:1086C0000D4B9B693A69101C98470B4B5B69002B5B
:1086D00009D00C23FB1800221A70074B5B690C228F
:1086E000BA18101C9847BD4606B080BD4A26002027
:1086F000FFFF0000482600202426002040260020FE
:1087000090B585B000AF7860214B7A6813CA13C367
:1087100013CA13C312681A601E4B00221A707B68BA
:108720001B68002B15D07B681B681B4A111C1A1C88
:108730000823081C111C1A1C0BF0B5F8164B181C4A
:10874000FFF786FE031CFB60FB68002B0CD0FB6868
:1087500019E0114B181CFFF77FFE031CFB60FB6840
:10876000002B01D0FB680EE00C4B012252421A8014
:108770000B4B00221A700B4A0B4B101C00211A1CC9
:1087800002F012FA031C181CBD4605B090BDC0468D
:108790002426002058260020402600204A260020BB
:1087A00048260020542600203D86010080B500AFF9
:1087B000044B1B68181C02F0B5FA031C181CBD46BC
:1087C00080BDC0465426002080B584B000AF284B41
:1087D000181CFFF719FF031C1A1C01235340DBB2BE
:1087E000002B33D0234B1B78002B0CD0224B5B6922
:1087F000002B2AD03B1D00221A701F4B5B693A1DCB
:10880000101C98472EE01D4B1B78002B03D11A4BF0
:108810005B68FB6002E0184B9B68FB60184B1A68B2
:10882000FB68101C191C002202F036FA031CBB6006
:10883000BB68002B09D0104B9B69002B05D00E4B59
:108840009B69BA68101C98470CE00BE00A4B5B6907
:10885000002B07D03B1C01221A70074B5B693A1CA6
:10886000101C9847034B00221A70BD4604B080BD0F
:108870004C260020582600202426002048260020D0
:108880005426002080B582B000AF78607B689A885B
:108890000B4B1A800B497B680E229B180822081C80
:1088A000191C0BF000F8084B00221A70074BDB89EB
:1088B000002B01D1FFF788FFBD4602B080BDC04646
:1088C0004A2600204C26002048260020242600208E
:1088D00080B584B000AF78600E4B012252421A80FE
:1088E0000D4B00221A700D4B1B68181C02F01AFA6F
:1088F000031CFB60FB68002B08D0094B9B69002B15
:1089000004D0074B9B69FA68101C9847BD4604B019
:1089100080BDC0464A26002048260020542600205C
:108920002426002080B584B000AF78607B680633D1
:10893000FB60FB681A88144BDB899A4220D1FB68E4
:108940001B8B022B1CD1FB681A33181CFFF744FE4B
:10895000031E02D0FFF738FF12E00C4B1B68181CF7
:1089600002F0E0F9031CBB60BB68002B08D0064B8B
:108970009B69002B04D0044B9B69BA68101C984774
:10898000BD4604B080BDC0462426002054260020E9
:1089900080B582B000AF786006497B6806229B18DC
:1089A0000822081C191C0AF07EFFFFF70DFFBD46C8
:1089B00002B080BD4C26002080B582B000AF786048
:1089C0007B681B88112B0DD002DC102B05D018E022
:1089D000122B11D0502B0AD013E07B68181CFFF724
:1089E00051FF0EE07B68181CFFF772FF09E07B68FF
:1089F000181CFFF797FF04E07B68181CFFF7C8FFFF
:108A0000C046BD4602B080BD80B584B000AF78607E
:108A1000214A7B68111C1A1C0823081C111C1A1CF3
:108A20000AF041FF1C4B181CFFF712FD031CFB60F2
:108A3000FB68002B2AD1194B181CFFF7E5FD031C1E
:108A40001A1C01235340DBB2002B0FD0144B012220
:108A50001A70144B1A88104B101C191CFFF7E4FCF9
:108A6000031CFB60104B01221A700FE00F4B5B6977
:108A7000002B09D00823FB1801221A700B4B5B69ED
:108A80000822BA18101C98470023FB60FB68181CCA
:108A9000BD4604B080BDC046402600204C260020C4
:108AA000582600204A2600204826002024260020A0
:108AB00070DF7047181CC04671DF7047181CC04635
:108AC00072DF7047181CC04673DF7047181CC04621
:108AD00074DF7047181CC04675DF7047181CC0460D
:108AE00076DF7047181CC04677DF7047181CC046F9
:108AF00078DF7047181CC04679DF7047181CC046E5
:108B00007ADF7047181CC0467BDF7047181CC046D0
:108B10007CDF7047181CC0467DDF7047181CC046BC
:108B20007EDF7047181CC0467FDF7047181CC046A8
:108B300080DF7047181CC04681DF7047181CC04694
:108B400082DF7047181CC04683DF7047181CC04680
:108B500084DF7047181CC04680B584B000AF7860D1
:108B600039600F23FB1800221A700F23FB181B78A3
:108B70000F22BA18591C11701A1C7B689B183A688E
:108B800012781A700F23FB181B780F22BA18591C81
:108B900011701A1C7B689B183A6852781A700E2361
:108BA000FB180F22BA181278023A51424A411A7041
:108BB0000E23FB181B7801225340DBB2002B05D09B
:108BC000064B002020211A1CFDF7CCFC0F23FB18BC
:108BD0001B78181CBD4604B080BDC046B04E0200D4
:108BE00080B582B000AF786039603B68181C0AF02D
:108BF00099FE031C9AB27B681A807B683A685A60B7
:108C0000BD4602B080BDC04680B582B000AF021C38
:108C10003960BB1D1A80BB1D1B88DAB23B681A7015
:108C20003B680133BA1D1288120A92B2D2B21A708E
:108C30000223181CBD4602B080BDC04670DF7047DD
:108C4000181CC04671DF7047181CC04672DF7047A1
:108C5000181CC04673DF7047181CC04674DF70478D
:108C6000181CC04675DF7047181CC04676DF704779
:108C7000181CC04677DF7047181CC04678DF704765
:108C8000181CC04679DF7047181CC0467ADF704751
:108C9000181CC0467BDF7047181CC0467CDF70473D
:108CA000181CC0467DDF7047181CC0467EDF704729
:108CB000181CC0467FDF7047181CC04680DF704715
:108CC000181CC04681DF7047181CC04682DF704701
:108CD000181CC04683DF7047181CC04684DF7047ED
:108CE000181CC046B0DF7047181CC046B1DF704783
:108CF000181CC046B2DF7047181CC046A0DF704782
:108D0000181CC046A1DF7047181CC046A2DF704780
:108D1000181CC046A3DF7047181CC046A4DF70476C
:108D2000181CC046A5DF7047181CC046A6DF704758
:108D3000181CC046A7DF7047181CC046A8DF704744
:108D4000181CC046A9DF7047181CC046AADF704730
:108D5000181CC046F0B593B000AFF863B9630F2399
:108D60003822BA18D118BB6B5A1E93410B700F23CF
:108D700038229446BC4463441A7801235340DBB242
:108D8000002B05D0544B002033211A1CFDF7EAFBC1
:108D90000E233822BA18D118FB6B5A1E93410B7060
:108DA0000E2338229446BC4463441A78012353406E
:108DB000DBB2002B05D0484B002034211A1CFDF7F4
:108DC000D1FBBB6B5C681B68DBB2FA6B1370FB6B8F
:108DD000591CBB6B5C681B68FF2212021A40151CF1
:108DE0000022231C13401E1C33062A0A3A633A6BE6
:108DF0001A433A63330A7B633023FB181B780B70EA
:108E0000FB6B991CBB6B5C681B68FF2212041A4049
:108E1000BA610022231C1340FB61BC69FD692B1C55
:108E20001B04221C120CBA62BA6A1A43BA622B1CC7
:108E30001B0CFB622823FB181B780B70FB6BDA1CE6
:108E4000BB6B5C681B68190E090639610021231C85
:108E50000B407B613C697D692B1C1B02211C090EA8
:108E60003962396A194339622B1C1B0E7B6220233D
:108E7000FB181B781370FB6B1A1DBB6B5C681B68BF
:108E800000211940B960FF21231C0B40FB60FB68E7
:108E90001B003B6000237B603B781370FB6B5A1D0B
:108EA000BB6B9B68DBB21370FB6B9A1DBB6B996845
:108EB000FF231B020B401B0ADBB21370FB6BDA1D96
:108EC000BB6B9968FF231B040B401B0CDBB21370B8
:108ED000BD4613B0F0BDC046EC4E020080B584B074
:108EE00000AF786039600F23FB1800221A700E2340
:108EF000FB183A68511E8A411A700E23FB181B7822
:108F000001225340DBB2002B05D03E4B00204B2109
:108F10001A1CFDF727FB0D23FB187A68511E8A41A6
:108F20001A700D23FB181B7801225340DBB2002B73
:108F300005D0344B00204C211A1CFDF713FB0F23E6
:108F4000FB181B780F22BA18591C11701A1C7B6869
:108F50009B183A6812781A703B6859880F23FB18DF
:108F60001B787A68D318081C191CFFF74DFE031CE8
:108F7000191C0F23FB180F22BA1812788A181A70BE
:108F80003B6899880F23FB181B787A68D318081C54
:108F9000191CFFF739FE031C191C0F23FB180F22A5
:108FA000BA1812788A181A703B68D9880F23FB18F0
:108FB0001B787A68D318081C191CFFF725FE031CC0
:108FC000191C0F23FB180F22BA1812788A181A706E
:108FD0000C23FB180F22BA181278073A51424A4163
:108FE0001A700C23FB181B7801225340DBB2002BB4
:108FF00005D0044B002054211A1CFDF7B3FABD46DE
:1090000004B080BDEC4E020080B594B000AFB960F2
:10901000111C7B600E23FB18021C1A800C23FB180A
:109020000A1C1A804F23FB18BA68511E8A411A7015
:109030004F23FB181B7801225340DBB2002B05D0D5
:10904000524B00206D211A1CFDF78CFA4E23FB18A1
:109050000C22BA181288511E8A411A704E23FB182E
:109060001B7801225340DBB2002B05D0474B002078
:109070006E211A1CFDF776FA2C23FB18181C002110
:109080001C220AF019FC2C23FB181A7802210A432F
:109090001A702C23FB1800225A602C23FB18002284
:1090A000DA602C23FB1800221A612C23FB18002203
:1090B0005A612C23FB1800229A614823FB180122D5
:1090C0009A704823FB180E22BA1812881A801423AB
:1090D000FB18181C002103220AF0EEFB1423FB18D6
:1090E0007A6812781A701423FB187A6852785A70CA
:1090F0001423FB189A7806218A43111C02220A4382
:109100009A701423FB189A7808218A439A701423C2
:10911000FB189A7810218A439A701423FB189A78C6
:1091200001218A439A701823FB18181C002114226D
:109130000AF0C2FB1823FB184822BA181A60182339
:10914000FB181422BA185A601823FB180C22BA18FC
:1091500012881A811823FB1800225A811823FB1841
:109160000C22BA1812889A811823FB18BA681A615F
:10917000074B18882C23F9181823FA18BB6DFFF732
:10918000C5FD031C181CBD4614B080BDEC4E02008A
:109190005C26002090B58BB002AF78601823FB18D6
:1091A00001229A701823FB18814A1A801823FA1892
:1091B000804B0120111C1A1CFFF7A0FD031CFB6152
:1091C000FB69002B01D0FB69EDE07B681B88002B5D
:1091D00013D07B6859687B681A887B683C331C1CF9
:1091E0007548764B0093231CFFF70EFF031CFB61B1
:1091F000FB69002B01D0FB69D5E07B681B89002B44
:1092000013D07B68D9687B681A897B683C331C1C47
:109210006B486C4B0093231CFFF7F6FE031CFB61AD
:10922000FB69002B01D0FB69BDE07B681B8A002B2A
:1092300013D07B6859697B681A8A7B683C331C1C95
:109240006148624B0093231CFFF7DEFE031CFB61A9
:10925000FB69002B01D0FB69A5E07B681B8B002B11
:1092600013D07B68D9697B681A8B7B683C331C1CE4
:109270005748584B0093231CFFF7C6FE031CFB61A5
:10928000FB69002B01D0FB698DE07B681B8C002BF8
:1092900013D07B68596A7B681A8C7B683C331C1C32
:1092A0004D484E4B0093231CFFF7AEFE031CFB61A1
:1092B000FB69002B01D0FB6975E07B681B8D002BDF
:1092C00013D07B68D96A7B681A8D7B683C331C1C81
:1092D0004348444B0093231CFFF796FE031CFB619D
:1092E000FB69002B01D0FB695DE07B681B6B002BE9
:1092F0001CD07B681B6B1022BA18101C191CFFF7BE
:1093000029FD7B683C331C1C37491023FA18374B66
:109310000093081C111C0822231CFFF775FE031C78
:10932000FB61FB69002B01D0FB693CE07B685B6B58
:10933000002B16D07B685B6B19687B685B6B1B79B5
:109340009AB27B683C331C1C29482A4B0093231C8F
:10935000FFF75AFE031CFB61FB69002B01D0FB6980
:1093600021E07B689B6B002B1CD07B689B6B0822E9
:10937000BA18101C191CFFF7B1FD7B683C331C1C8C
:109380001D490823FA181D4B0093081C111C0722C5
:10939000231CFFF739FE031CFB61FB69002B01D086
:1093A000FB6900E00023181CBD4609B090BDC04613
:1093B0000A1800005C260020292A000060260020F0
:1093C000242A000068260020252A0000702600209C
:1093D000272A000078260020262A00008026002068
:1093E000282A000088260020232A0000902600203A
:1093F0002A2A000098260020502A0000A0260020DB
:1094000023DF7047181CC04624DF7047181CC04675
:1094100025DF7047181CC04626DF7047181CC04661
:1094200027DF7047181CC04628DF7047181CC0464D
:1094300029DF7047181CC0462ADF7047181CC04639
:109440002BDF7047181CC0462CDF7047181CC04625
:109450002DDF7047181CC0462EDF7047181CC04611
:109460002FDF7047181CC04630DF7047181CC046FD
:1094700031DF7047181CC04632DF7047181CC046E9
:1094800035DF7047181CC04636DF7047181CC046D1
:1094900033DF7047181CC04634DF7047181CC046C5
:1094A00037DF7047181CC04638DF7047181CC046AD
:1094B00039DF7047181CC0463ADF7047181CC04699
:1094C0003BDF7047181CC0463CDF7047181CC04685
:1094D0003DDF7047181CC0463EDF7047181CC04671
:1094E0003FDF7047181CC04641DF7047181CC0465C
:1094F00042DF7047181CC04643DF7047181CC04647
:1095000040DF7047181CC04644DF7047181CC04637
:1095100045DF7047181CC04646DF7047181CC04620
:1095200047DF7047181CC04648DF7047181CC0460C
:1095300049DF7047181CC0464ADF7047181CC046F8
:109540004BDF7047181CC0464CDF7047181CC046E4
:109550004DDF7047181CC04651DF7047181CC046CD
:1095600052DF7047181CC04621DF7047181CC046E8
:1095700020DF7047181CC04622DF7047181CC04609
:109580004EDF7047181CC0464FDF7047181CC0469E
:1095900050DF7047181CC04610DF7047181CC046CB
:1095A00011DF7047181CC04612DF7047181CC046F8
:1095B00013DF7047181CC04680B582B000AF7860DA
:1095C0007B68032213405A425341DBB2181CBD464C
:1095D00002B080BD70DF7047181CC04671DF704755
:1095E000181CC04672DF7047181CC04673DF7047F6
:1095F000181CC04674DF7047181CC04675DF7047E2
:10960000181CC04676DF7047181CC04677DF7047CD
:10961000181CC04678DF7047181CC04679DF7047B9
:10962000181CC0467ADF7047181CC0467BDF7047A5
:10963000181CC0467CDF7047181CC0467DDF704791
:10964000181CC0467EDF7047181CC0467FDF70477D
:10965000181CC04680DF7047181CC04681DF704769
:10966000181CC04682DF7047181CC04683DF704755
:10967000181CC04684DF7047181CC046B0DF704716
:10968000181CC046B1DF7047181CC046B2DF7047D7
:10969000181CC04690DF7047181CC04691DF704709
:1096A000181CC04692DF7047181CC04693DF7047F5
:1096B000181CC04694DF7047181CC04695DF7047E1
:1096C000181CC04696DF7047181CC04697DF7047CD
:1096D000181CC04698DF7047181CC046A0DF7047B2
:1096E000181CC046A1DF7047181CC046A2DF704797
:1096F000181CC046A3DF7047181CC046A4DF704783
:10970000181CC046A5DF7047181CC046A6DF70476E
:10971000181CC046A7DF7047181CC046A8DF70475A
:10972000181CC046A9DF7047181CC046AADF704746
:10973000181CC04660DF7047181CC04661DF7047C8
:10974000181CC04662DF7047181CC04663DF7047B4
:10975000181CC04664DF7047181CC04665DF7047A0
:10976000181CC04666DF7047181CC04667DF70478C
:10977000181CC04668DF7047181CC04669DF704778
:10978000181CC04680B584B000AFF8607A600A2328
:10979000FB180A1C1A800A23FB181A887B68101C05
:1097A000191CFCF7E9FEBD4604B080BD80B584B04D
:1097B00000AF3D4B1B78DBB201225340DBB2002BE4
:1097C00000D06DE0394B1A680F23FB1851424A4113
:1097D0001A70374B1A680E23FB1851424A411A700F
:1097E0000F23FB181B7801225340DBB2002B1DD046
:1097F0003B1D181CFFF7B0FE031CBB60BB68052BAC
:1098000004D10F23FB1801221A700FE0BB68002B54
:1098100007D0BA68274B101C69211A1CFCF7A2FE5E
:1098200004E0224B1B687A68101C98470E23FB1833
:109830001B7801225340DBB2002B25D01E4B1A8827
:10984000BB1C1A801D4B1A68BB1C101C191CFFF78F
:1098500075FF031CBB60BB68052B04D10E23FB18EE
:1098600001221A7010E0BB68002B07D0BA68114BB8
:10987000101C80211A1CFCF775FE05E00C4B1A68C1
:109880000E4B1B68181C90470F23FB181B78002BEE
:1098900005D00E23FB181B78002B00D000E09FE7BB
:1098A000BD4604B080BDC046B2260020B8260020C8
:1098B000B4260020244F0200B0260020AC26002051
:1098C00080B586B000AFF860B9603B60BB1D1A8000
:1098D000BB68002B01D107232AE0BB68181CFFF7E7
:1098E0006BFE031C1A1C01235340DBB2002B01D07A
:1098F00007231DE0104BBA681A60104BBA1D12887E
:109900001A800F4B3A681A60FA680E4B101C191C2B
:10991000FFF742FE031C7B617B69002B01D07B6952
:1099200006E0094B01221A701620FFF775FD031C93
:10993000181CBD4606B080BDAC260020B026002015
:10994000A826002085970100B226002080B582B0AD
:1099500000AFFFF725FE031C7B607B685A1E934116
:10996000DAB2034B1A707B68181CBD4602B080BD8A
:10997000B226002080B582B000AF78607B68002BF3
:1099800001D10E2303E0044B7A681A600023181CEF
:10999000BD4602B080BDC046B426002080B582B06E
:1099A00000AF78607B68002B01D10E2303E0044BED
:1099B0007A681A600023181CBD4602B080BDC046FC
:1099C000B826002080B582B000AF0F4B1B68002B7B
:1099D00014D00D4B1B689847031C7B607B683B6071
:1099E0003B68002B09D0396899235A00074B081CA3
:1099F000111C1A1CFCF7B6FD02E001E0FFF7D6FED1
:109A0000BD4602B080BDC046A8260020244F0200FB
:109A100080B582B000AF78607B68032213405A4261
:109A20005341DBB2181CBD4602B080BD80B582B088
:109A300000AF021CFB1D1A70064BFA1D1278111C98
:109A40001F220A40012191400A1C1A60BD4602B043
:109A500080BDC04600E100E080B582B000AF021CCE
:109A6000FB1D1A70074AFB1D1B78191C1F230B4096
:109A7000012199400B1C191C8023D150BD4602B016
:109A800080BDC04600E100E080B582B000AF021C9E
:109A9000FB1D1A70074AFB1D1B78191C1F230B4066
:109AA000012199400B1C191C80235B00D150BD463D
:109AB00002B080BD00E100E080B582B000AF021CC2
:109AC000FB1D1A70074AFB1D1B78191C1F230B4036
:109AD000012199400B1C191CC0235B00D150BD46CD
:109AE00002B080BD00E100E0B0B582B000AF021C62
:109AF0003960FB1D1A70FB1D1B787F2B2FD92D4C55
:109B0000FB1D1B781A1C0F231340083B9908294A98
:109B1000FB1D1B78181C0F230340083B9B080633D2
:109B20009B00D3185B68FA1D1278101C03220240B8
:109B3000D200101CFF228240D2431A403B689B0196
:109B4000FF200340F81D0078051C03202840C000BA
:109B500083401A438B1D9B00E3185A6026E0164C85
:109B6000FB1D1B785BB29B081349FA1D127852B299
:109B70009208C03292005258F91D0978081C03213E
:109B80000140C900081CFF218140C94311403A68C7
:109B90009201FF200240F81D0078051C0320284098
:109BA000C00082400A43C0339B001A51BD4602B038
:109BB000B0BDC04600ED00E000E100E080B582B03D
:109BC00000AF021CFB1D1A70FB1D1B787F2B16D9E2
:109BD000164AFB1D1B78191C0F230B40083B9B08E2
:109BE00006339B00D3185B68FA1D1278111C032200
:109BF0000A40D200D340FF2213409B0911E00C4AD7
:109C0000FB1D1B785BB29B08C0339B009B58FA1D61
:109C10001278111C03220A40D200D340FF221340C5
:109C20009B09181CBD4602B080BDC04600ED00E097
:109C300000E100E023DF7047181CC04624DF7047B6
:109C4000181CC04625DF7047181CC04626DF704729
:109C5000181CC04627DF7047181CC04628DF704715
:109C6000181CC04629DF7047181CC0462ADF704701
:109C7000181CC0462BDF7047181CC0462CDF7047ED
:109C8000181CC0462DDF7047181CC0462EDF7047D9
:109C9000181CC0462FDF7047181CC04630DF7047C5
:109CA000181CC04631DF7047181CC04632DF7047B1
:109CB000181CC04635DF7047181CC04636DF704799
:109CC000181CC04633DF7047181CC04634DF70478D
:109CD000181CC04637DF7047181CC04638DF704775
:109CE000181CC04639DF7047181CC0463ADF704761
:109CF000181CC0463BDF7047181CC0463CDF70474D
:109D0000181CC0463DDF7047181CC0463EDF704738
:109D1000181CC0463FDF7047181CC04641DF704723
:109D2000181CC04642DF7047181CC04643DF70470E
:109D3000181CC04640DF7047181CC04644DF7047FF
:109D4000181CC04645DF7047181CC04646DF7047E8
:109D5000181CC04647DF7047181CC04648DF7047D4
:109D6000181CC04649DF7047181CC0464ADF7047C0
:109D7000181CC0464BDF7047181CC0464CDF7047AC
:109D8000181CC0464DDF7047181CC04651DF704795
:109D9000181CC04652DF7047181CC04621DF7047B0
:109DA000181CC04620DF7047181CC04622DF7047D1
:109DB000181CC0464EDF7047181CC0464FDF704766
:109DC000181CC04650DF7047181CC04680B582B0D2
:109DD00000AF7860C046C046C046C046C046C046D8
:109DE000C046C046C046C046C046C046C046C04643
:109DF0007B68013B7B60002BECD1BD4602B080BD8F
:109E000080B582B000AF0C4B5B68DB05DB0D7B607F
:109E10007B68002B0BD07B68103B3B603B68DBB260
:109E20005BB2181CFFF7CAFE031CDBB200E0042380
:109E3000181CBD4602B080BD00ED00E080B582B0C8
:109E400000AF78600549A123DB007A68CA50112071
:109E50000321FFF749FEBD4602B080BD001001405E
:109E600080B500AF0E49D1239B0080225202CA5018
:109E70000B49C1239B0080225202CA501120FFF7D8
:109E80001BFE1120FFF7D2FD054B01221A602F2087
:109E9000FFF79CFF034B01221A70BD4680BDC046F0
:109EA00000100140E426002080B500AF1120FFF72C
:109EB000D3FD1049D2239B0080225202CA500D4983
:109EC000C2239B0080225202CA500A4B01225A60D0
:109ED0002F20FFF77BFF074B01229A60064B0022E1
:109EE0001A602F20FFF772FF044B00221A70BD4644
:109EF00080BDC04600100140D0260020E42600208E
:109F000080B500AF024A034BD358181CBD4680BD34
:109F1000001001400405000080B582B000AF7860F9
:109F200039607A683B68D31A1B021B0A181CBD46AD
:109F300002B080BD80B582B000AF78600349A8232D
:109F4000DB007A68CA50BD4602B080BD00100140F7
:109F500080B586B000AF78604C4B19687A68131CE6
:109F6000DB009B189B00CB18BB60494B1B6801337F
:109F700003D1474B7A681A6084E0BB685968434B49
:109F80001868434B1A68131CDB009B189B00C3180E
:109F90005B6899421ED83D4B19683D4B1A68131CEB
:109FA000DB009B189B00CA18384B1868384B19689F
:109FB0000B1CDB005B189B00C3185968BB685B680F
:109FC000CB1A5360324B1A68BB681A62304B7A68FE
:109FD0001A6057E0BB685B68FB602D4B1B687B61B8
:109FE0002B4B1B683B6117E0284B19683A69131C1F
:109FF000DB009B189B00CB185B68FA68D31AFB60E8
:10A000003B697B61214B19683A69131CDB009B1883
:10A010009B00CB181B6A3B613B6901330BD01B4B88
:10A0200019683A69131CDB009B189B00CB185A680F
:10A03000FB689A42D8D33B69013313D0134B19689C
:10A040003A69131CDB009B189B00CA180F4B186859
:10A0500039690B1CDB005B189B00C3185968FB684F
:10A06000CB1A5360BB68FA685A60BB683A691A62D7
:10A07000064B19687A69131CDB009B189B00CB18F0
:10A080007A681A62BD4606B080BDC046C026002070
:10A09000CC26002080B586B000AF7860394B1B68B5
:10A0A0007B617B693B6110E03A697B689A4200D131
:10A0B0000EE03B697B61344B19683A69131CDB0085
:10A0C0009B189B00CB181B6A3B613B690133EBD1AA
:10A0D0003B69013300D152E07A693B699A4211D160
:10A0E000294B1968274B1A68131CDB009B189B002F
:10A0F000CB181A6A234B1A60224B1B68013301D11B
:10A10000FFF7D2FE204B19683A69131CDB009B183D
:10A110009B00CB185B68FB601B4B19687A69131CAA
:10A12000DB009B189B00CA18174B186839690B1C79
:10A13000DB005B189B00C3181B6A1362124B196883
:10A140007A69131CDB009B189B00CB181B6A3B61D0
:10A150003B69013313D00C4B19683A69131CDB00BF
:10A160009B189B00CA18084B186839690B1CDB0048
:10A170005B189B00C3185968FB68CB185360BD4639
:10A1800006B080BDCC260020C026002080B500AFE0
:10A190001120FFF779FCBD4680BDC04680B500AFF9
:10A1A0001420FFF771FCBD4680BDC04680B584B069
:10A1B00000AF7860144B1B68002B1BD0124B1A6841
:10A1C0007B6899697B68DB69081C191C9047031C34
:10A1D000FB60FB68BB60BB68002B0AD0B9686423D6
:10A1E000FF331A1C094B081C111C1A1CFCF7BAF986
:10A1F00006E005E07B689A697B68DB69181C90477C
:10A20000BD4604B080BDC046E0260020604F02007D
:10A2100080B584B000AF2B4B1B6801334FD00023B7
:10A220007B60FFF76DFE021C274B1B68101C191C7E
:10A23000FFF772FE031CBB60224B1B68FB601FE034
:10A24000224B1968FA68131CDB009B189B00CB1883
:10A250003B603B685A68BB689A4200D913E03B6890
:10A260005B68BA68D31ABB603B685B687A68D318CE
:10A270007B603B681B6AFB603B68181CFFF796FF1E
:10A28000FB680133DCD1124B1A78124B1B789A42CF
:10A290000CD1104B1B780133DAB20E4B1A700D4BF8
:10A2A0001B78022B02D10B4B00221A70094B1B7832
:10A2B0001A1C094B92007968D150FFF76FFFBD4619
:10A2C00004B080BDCC260020D0260020C02600206F
:10A2D000DC260020DD260020D426002080B582B0B8
:10A2E00000AF7860184B1A78184B1B789A4223D02D
:10A2F000154B1B780133DAB2134B1A70124B1B78D3
:10A30000022B02D1104B00221A700F4B1B781A1C23
:10A310000F4B9200D2587B681A607B681A680D4B0D
:10A320001B68D2180B4B1A600A4B1B681B021A0AD7
:10A33000084B1A60012303E07B6800221A600023A7
:10A34000181CBD4602B080BDDC260020DD260020A2
:10A35000D4260020D026002080B586B000AF424B26
:10A360001B683B611723FB18404A12781A7066E09D
:10A370003F4B1A681723FB181B78DB00D318FB60D0
:10A380001623FB18FA6812781A7051E0FB685968B6
:10A390001623FB181A78131C5B009B18DB00CB18E4
:10A3A000BB601623FB181A781623FB1801321A70AB
:10A3B000FB689B781622BA1812789A4203D11623AA
:10A3C000FB1800221A70BB681B78022B02D0032BEB
:10A3D00028D02CE0274B1968BB685A68131CDB0097
:10A3E0009B189B00CB187B607B681B7D002B07D0E4
:10A3F000BB685B68181CFFF74DFE7B6800221A756E
:10A4000016E01C4B1968184B1A68131CDB009B18CC
:10A410009B00CB183B603B6800221A753B681A6AA8
:10A42000114B1A60104B1B680133EAD100E0C046A3
:10A43000FB685B781622BA1812789A42A6D11723C5
:10A44000FB181B781722BA18591E1170002B8FD1D8
:10A45000054B1A683B69D31A5A1E9341DBB2181C8C
:10A46000BD4606B080BDC046CC260020C4260020D4
:10A47000C8260020C026002080B588B000AFF86054
:10A48000B9607A600023FB6142E0254B1968254BD7
:10A490001A68131CDB009B189B00CB18BB61BB69BF
:10A4A0005A68FB689A4206D9BB695A68FB68D21A97
:10A4B000BB695A6030E0BB695B68FA68D31AFB601D
:10A4C000BB695B68FA69D318FB61BB6900225A60FB
:10A4D000BB6900221A75134B1B687B61BB691A6A42
:10A4E000104B1A60BB691B69002B11D0BA68FB695D
:10A4F000D3181B021A0ABB699A60BB691A69BB6947
:10A50000DA607B681A68BB691A627B687A691A60CC
:10A51000044B1B680133B8D1BD4608B080BDC046AE
:10A52000C0260020CC26002080B58AB000AF78601D
:10A53000624B1B68BB612723FB18614A12781A70B3
:10A54000A7E0604B1A682723FB181B78DB00D318A1
:10A550007B6193E07B6801330ED07B683B625A4B92
:10A5600019683A6A131CDB009B189B00CB18FB612F
:10A57000FB691B6A7B603EE07B695A687B691B78DC
:10A58000191C0B1C5B005B18DB00D3183B617B695B
:10A590001B780133DAB27B691A707B691A787B69A0
:10A5A0009B789A4202D17B6900221A703B695B68F2
:10A5B0003B62454B19683A6A131CDB009B189B00F1
:10A5C000CB18FB613B691B78012B03D1FB691B7D19
:10A5D000002B00D052E03B699A68FB699A603B69A6
:10A5E000DA68FB69DA603B691A69FB691A613B69E1
:10A5F0005A69FB69DA61FB699A68344B1B68D31AA4
:10A600001B021B0A324A93420ED8FB699A682F4BF1
:10A610001B68101C191CFFF77FFC021CFB69DB6820
:10A62000D218FB695A6018E0284B1A68FB699B68CE
:10A63000101C191CFFF770FC031CFB60FB69DA6837
:10A64000FB689A4206D9FB69DA68FB68D21AFB6993
:10A650005A6002E0FB6900225A60FB6900229A609E
:10A66000FB690022DA60FB6901221A75FB6901228D
:10A6700052421A623B6A181CFFF76AFC7B6801337E
:10A6800000D067E77B691A787B695B789A4200D0D3
:10A6900060E72723FB181B782722BA18591E117070
:10A6A000002B00D04DE7054B1A68BB69D31A5A1E20
:10A6B0009341DBB2181CBD460AB080BDCC260020F9
:10A6C000C4260020C8260020C0260020D026002056
:10A6D000FEFF7F0090B589B000AF78602A4B1B6801
:10A6E00001334CD0294B1968274B1A68131CDB0027
:10A6F0009B189B00CB185B68FB61FFF701FC031CF8
:10A70000BB61234B1B687B61BA697B69101C191CF8
:10A71000FFF702FC031C03333B611E4B1B78012235
:10A720005340DBB2002B01D0FFF79AFBFA693B697B
:10A73000934200D2131C7A69D3187B617B691B0298
:10A740001B0A7B617B69181CFFF7F4FBFFF7D8FB42
:10A75000031CFB60FA68BB69101C191CFFF7DCFBCB
:10A76000031CDC1C7A69BB69101C191CFFF7D4FBA5
:10A77000031C9C4202D9FFF709FD02E001E0FFF74C
:10A7800093FBBD4609B090BDCC260020C02600201A
:10A79000D0260020E426002090B587B000AF01232A
:10A7A0005B427B601D4B1B683B611D4B1B68FB6064
:10A7B0000B23FC183B1C181CFFF790FD031C237097
:10A7C0001723FC18FFF7C8FD031C23700B23FB188D
:10A7D0001B78002B0BD039683A693B1D081C111CF3
:10A7E0001A1CFFF749FE1723FB1801221A707B6819
:10A7F000181CFFF799FE031E03D01723FB18012234
:10A800001A701723FB181B78002B03D0FB68181C49
:10A81000FFF760FFBD4607B090BDC046D0260020C0
:10A82000CC26002080B582B000AF786039603B68EC
:10A83000DAB27B685A70BD4602B080BD80B584B084
:10A8400000AF786039607B685B780133FB607B68C0
:10A850009B781A1EFB689A4201D10023FB607B683B
:10A860001B781A1EFB689A4201D100230EE03B6858
:10A87000FA681A607B685A687B685B78191C0B1C45
:10A880005B005B18DB00D318BB60BB68181CBD46BF
:10A8900004B080BD80B586B000AFF860B9607A6062
:10A8A0003B601B4B1A68FB68DB00D2181023FB18B7
:10A8B000101C191CFFF7C2FF031C7B617B69002B76
:10A8C00001D1042320E07B6901221A707B69BA68F8
:10A8D0005A60FFF715FB021C7B699A607B697A68F6
:10A8E000DA607B693A681A617B693A6A5A61084B97
:10A8F0001A68FB68DB00D2183B69101C191CFFF7B3
:10A9000091FFFFF74BFC0023181CBD4606B080BD2D
:10A91000C826002080B584B000AF78603960144B41
:10A920001A687B68DB00D2180823FB18101C191C5E
:10A93000FFF784FF031CFB60FB68002B01D104239D
:10A9400012E0FB6802221A70FB683A685A60084BF2
:10A950001A687B68DB00D218BB68101C191CFFF753
:10A9600061FFFFF71BFC0023181CBD4604B080BD2F
:10A97000C826002080B584B000AF7860144B1A68F8
:10A980007B68DB00D2180823FB18101C191CFFF78A
:10A9900055FF031CFB60FB68002B01D1042313E06F
:10A9A000FB6803221A70FB68012252425A60084B6E
:10A9B0001A687B68DB00D218BB68101C191CFFF7F3
:10A9C00031FFFFF7EBFB0023181CBD4604B080BD30
:10A9D000C826002080B500AF104AA0235B000021EC
:10A9E000D1500E4AA2235B000021D1500B4AA42370
:10A9F0005B000021D150094AA6235B000021D15001
:10AA0000064A80235B000021D150044A82235B0068
:10AA10000021D150FFF7FCFBBD4680BD0010014076
:10AA200080B500AFFFF7B8FEBD4680BD80B586B0EB
:10AA300000AFF860081C111C7B600B23FB18021C84
:10AA40001A700A23FB180A1C1A707B68181CFEF780
:10AA5000DFFF031C1A1C01235340DBB2002B01D083
:10AA600007238BE07B68002B01D1072386E0FFF7EB
:10AA70001BFA444B3A6A1A60434B0B22BA181278FD
:10AA80001A70424B7A681A6000237B6116E03F4BD4
:10AA900019687A69131CDB009B189B00CB180022F5
:10AAA0001A703A4B19687A69131CDB009B189B00DB
:10AAB000CB1800221A757B6901337B610B23FB18CD
:10AAC0001A787B699A42E2DC0B23FB181A78131C74
:10AAD000DB009B189B001A1C7B689B187B602C4B2F
:10AAE00003221A702B4B7A681A607B6818337B60DC
:10AAF00000237B6121E0274B1A687B69DB00D318B8
:10AB00003B613B6900221A703B6900225A703B6925
:10AB10000A22BA1812789A703B697A685A600A2336
:10AB2000FB181A78131C5B009B18DB001A1C7B684F
:10AB30009B187B607B6901337B617B69022BDADDCB
:10AB4000154B012252421A60144B00221A70144B0A
:10AB500000221A701420FEF7AFFF14200321FEF725
:10AB6000C3FF1420FEF762FFFB68181CFFF766F9AD
:10AB7000FFF7C6F9021C0B4B1A600023181CBD46D8
:10AB800006B080BDE0260020BC260020C0260020A4
:10AB9000C4260020C8260020CC260020DC26002069
:10ABA000DD260020D026002080B586B000AFF860FA
:10ABB0007A600B23FB180A1C1A70284B1B68002BA9
:10ABC00001D1082346E07B68002B01D1072341E037
:10ABD000FB68002B01D107233CE000237B6132E0BE
:10ABE0001E4B19687A69131CDB009B189B00CB185D
:10ABF0001B78002B24D1194B19687A69131CDB00D0
:10AC00009B189B00CB1801221A70144B19687A69A3
:10AC1000131CDB009B189B00CB180B22BA18127870
:10AC20005A700E4B19687A69131CDB009B189B0045
:10AC3000CB187A689A617A69FB681A60002309E088
:10AC40007B6901337B61064B1B781A1E7B699A4234
:10AC5000C6DC0423181CBD4606B080BDC0260020FB
:10AC6000BC26002080B582B000AFFFF7C9F8031EF4
:10AC7000012B02D0032B03D005E000237B6005E00D
:10AC800001237B6002E002237B60C0467B68181CC6
:10AC9000BD4602B080BDC04690B589B002AFF86035
:10ACA000B9607A601D4B1B68002B01D1082331E08D
:10ACB0001B4B1B781A1EFB689A4202D9BB68042BF7
:10ACC00001D8072326E0154B1968FA68131CDB002E
:10ACD0009B189B00CB181B78012B01D0082319E08F
:10ACE0000E4B1968FA68131CDB009B189B00CB18ED
:10ACF0005B78012B01D1BB6800E000237B61FFF78B
:10AD0000B1FFF968BA687C697B680093231CFFF780
:10AD1000C1FD031C181CBD4607B090BDC026002015
:10AD2000BC26002080B582B000AF7860134B1B6852
:10AD3000002B01D108231DE0114B1B781A1E7B68E4
:10AD40009A4201D8072315E00C4B19687A68131C46
:10AD5000DB009B189B00CB181B78012B01D008232C
:10AD600008E0FFF77FFF021C7B68101C191CFFF72F
:10AD7000D1FD031C181CBD4602B080BDC0260020BA
:10AD8000BC26002080B500AF074B1B68002B01D10B
:10AD9000082306E0FFF766FF031C181CFFF7EAFD17
:10ADA000031C181CBD4680BDC026002080B582B0A3
:10ADB00000AF7860FFF7A4F8021C7B681A600023DC
:10ADC000181CBD4602B080BD80B584B000AFF860ED
:10ADD000B9607A60FA68BB68101C191CFFF79CF810
:10ADE000021C7B681A600023181CBD4604B080BD9D
:10ADF00023DF7047181CC04624DF7047181CC0466C
:10AE000025DF7047181CC04626DF7047181CC04657
:10AE100027DF7047181CC04628DF7047181CC04643
:10AE200029DF7047181CC0462ADF7047181CC0462F
:10AE30002BDF7047181CC0462CDF7047181CC0461B
:10AE40002DDF7047181CC0462EDF7047181CC04607
:10AE50002FDF7047181CC04630DF7047181CC046F3
:10AE600031DF7047181CC04632DF7047181CC046DF
:10AE700035DF7047181CC04636DF7047181CC046C7
:10AE800033DF7047181CC04634DF7047181CC046BB
:10AE900037DF7047181CC04638DF7047181CC046A3
:10AEA00039DF7047181CC0463ADF7047181CC0468F
:10AEB0003BDF7047181CC0463CDF7047181CC0467B
:10AEC0003DDF7047181CC0463EDF7047181CC04667
:10AED0003FDF7047181CC04641DF7047181CC04652
:10AEE00042DF7047181CC04643DF7047181CC0463D
:10AEF00040DF7047181CC04644DF7047181CC0462E
:10AF000045DF7047181CC04646DF7047181CC04616
:10AF100047DF7047181CC04648DF7047181CC04602
:10AF200049DF7047181CC0464ADF7047181CC046EE
:10AF30004BDF7047181CC0464CDF7047181CC046DA
:10AF40004DDF7047181CC04651DF7047181CC046C3
:10AF500052DF7047181CC04621DF7047181CC046DE
:10AF600020DF7047181CC04622DF7047181CC046FF
:10AF70004EDF7047181CC0464FDF7047181CC04694
:10AF800050DF7047181CC04680B582B000AF7860B3
:10AF90007B68032213405A425341DBB2181CBD4662
:10AFA00002B080BD80B582B000AF78601D497A687C
:10AFB000131C9B009B189B00CB1800221A71194987
:10AFC0007A68131C9B009B189B00CB180022DA8028
:10AFD00014497A68131C9B009B189B00CB180833FC
:10AFE00001225A600F497A68131C9B009B189B0032
:10AFF000CB18083300229A600A497A68131C9B0018
:10B000009B189B00CB18103300225A6005497A68C0
:10B01000131C9B009B189B00CB1800221A81BD4675
:10B0200002B080BDE826002080B582B000AF0F4B93
:10B0300000221A800E4B00221A700E4B00221A704A
:10B040000C4B00225A700B4B00229A7000237B603D
:10B0500006E07B68181CFFF7A5FF7B6801337B6067
:10B060007B68092BF5D9BD4602B080BDBC27002006
:10B07000BF270020E826002080B586B000AFB96069
:10B080007A60191C0F23FB18021C1A700C23FB1882
:10B090000A1C1A801323FB1800221A703C4B5B78A1
:10B0A0000A2B6ED03A4B1978394B5A781323FB1878
:10B0B0008A181A701323FB181B78092B06D913233F
:10B0C000FB181322BA1812780A3A1A701323FB18C5
:10B0D0001A782F49131C9B009B189B000F22BA184B
:10B0E000CB1812781A711323FB181A782849131CED
:10B0F0009B009B189B00CB1810337A685A6013236F
:10B10000FB181A7822490820131C9B009B189B00EF
:10B11000CB181B18BA68043303CA03C31323FB18E4
:10B120001A781B49131C9B009B189B000C22BA1811
:10B13000CB181288DA801323FB181A781449131CD1
:10B140009B009B189B002022BA18CB1812881A81EA
:10B1500000237B610E4B9B7801225340DBB2002B16
:10B1600008D000F091FA031C7B617B69112B01D19F
:10B1700000237B61064B5B780133DAB2044B5A70D3
:10B1800001E004237B617B69181CBD4606B080BDCD
:10B19000E826002080B582B000AF00237B600A4B18
:10B1A0005B78002B0BD000F06FFA031C7B607B6890
:10B1B000002B04D07B68112B01D100237B607B68BE
:10B1C000181CBD4602B080BDE8260020B0B586B090
:10B1D00002AF7860254B1B78181C0F23FA182349FF
:10B1E000031C9B001B189B00CB181B7913701F4B73
:10B1F0001B78191C1D4A0B1C9B005B189B00D31865
:10B2000008335A681A4B1201D358BB60174B1B788E
:10B210001A1C131C9B009B189B0008331A1C134B11
:10B22000D318181D114B1B78191C104A0B1C9B00BE
:10B230005B189B00D31810335D680C4B1B78191CEE
:10B240000A4A0B1C9B005B189B00D318DB88191C57
:10B250000F23FB181A787B680091BC68111C1A1C1C
:10B260002B1CA047BD4604B0B0BDC046E826002058
:10B27000C027002080B586B000AF786000237B61D6
:10B280006C4B9B78002B00D1D1E06A4B00229A7066
:10B29000694B1B78082B16D17B68022B03D1664BB8
:10B2A00000221A7002E0654B00221A70FFF772FF4D
:10B2B000031C7B617B69002B04D07B69181CFFF7A2
:10B2C00085FFB4E0B3E07B68022B03D0032B00D1F1
:10B2D000A9E0ACE0574B1B781A1C131C9B009B1871
:10B2E0009B00544A9B1804333B61554B1B88013328
:10B2F0009AB2534B1A803B691B78022B08D1504BF2
:10B300001B889B023A695288934201DB012200E0CC
:10B3100000220F23FB181A701A7801210A401A70B4
:10B320003B691B78052B05D1434B1B78072B01D1BB
:10B33000012200E000220E23FB181A701A78012166
:10B340000A401A703B691B78042B05D13A4B1B78D5
:10B35000072B01D1012200E000220D23FB181A70F7
:10B360001A7801210A401A703B691B78042B0CD112
:10B37000334B1B889B023A695288934205DB2E4B64
:10B380001B78002B01D1012200E000220C23FB18C6
:10B390001A701A7801210A401A700E23FB181B78C4
:10B3A000002B0ED10D23FB181B78002B09D10C2389
:10B3B000FB181B78002B04D10F23FB181B78002BE4
:10B3C00024D01D4B00221A707B69181CFFF7FEFE6B
:10B3D000184B1B78181CFFF7E5FD194B00221A804B
:10B3E000144B5B78013BDAB2124B5A70114B1B784D
:10B3F0000133DAB20F4B1A700E4B1B78092B05D9AB
:10B400000C4B1B780A3BDAB20A4B1A70FFF7C2FEEC
:10B41000031C7B617B69002B04D07B69181CFFF740
:10B42000D5FE04E003E00D20FFF7D0FEC046BD4688
:10B4300006B080BDE8260020BF270020BE270020E0
:10B44000BC27002080B586B000AFF860B9607A6094
:10B450003B6003237B618A4B1B78002B0CD17B68FC
:10B46000002B06D13B68002B03D1854B02221A70BA
:10B4700002E0834B01221A70814B1B78062B00D906
:10B48000F8E09A007F4BD3181B689F4680235B052A
:10B490001B699BB21A1CE6235343191C80235B05CE
:10B4A0001B699BB21A1CBB6853431A1C80235B05A3
:10B4B0001B699BB29B089BB2081C111C1A1CFFF74E
:10B4C0004BFD031C7B617B69002B03D16C4B02227B
:10B4D0001A70D0E0CFE0BB68181CFFF741FD031CD9
:10B4E0007B617B69002B19D17B68002B12D13B68F3
:10B4F000002B0BD1FB681B78042B03D1604B072278
:10B500001A700BE05E4B05221A7007E05C4B0422B8
:10B510001A70B0E05A4B03221A70ACE0ABE0802303
:10B520005B051B699BB21A1CBB685343191C802323
:10B530005B051B699BB21A1CE62353431A1C7B68EC
:10B54000081C111C1A1CFFF707FD031C7B617B699B
:10B55000002B12D13B68002B0BD1FB681B78042B0E
:10B5600003D1474B06221A7007E0454B05221A709B
:10B5700081E0434B04221A707DE07CE080235B0570
:10B580001B699BB21A1CBB685A437B689B00D3188B
:10B59000FA6852889B18191C80235B051B699BB2B3
:10B5A0001A1CE62353431A1C7B689B00D318FA68C5
:10B5B00052889B181A1C3B68081C111C1A1CFFF7A8
:10B5C000CBFC031C7B617B69002B0BD1FB681B78D8
:10B5D000042B03D12A4B06221A7003E0284B0522C4
:10B5E0001A7048E047E080235B051B699BB21A1C78
:10B5F000BB685A437B689B00D318191CFB681A6907
:10B60000FB685B889B089BB2081C111C1A1CFFF787
:10B61000A3FC031C7B617B69002B0DD17B68002B95
:10B6200006D13B68002B03D1154B07221A7003E0AB
:10B63000134B06221A701EE01DE080235B051B6978
:10B640009BB21A1CE6235A4380235B051B699BB2FD
:10B65000101C191C07F0F0FC031C181CFFF780FCE1
:10B66000031C7B617B69002B03D1054B07221A70F9
:10B6700001E000E0C0467B69181CBD4606B080BDF5
:10B68000BF270020944F020080B58EB000AF0F237B
:10B690007B637E4B1B781A1C131C9B009B189B0022
:10B6A0007A4A9B1804333B633B6BDB68FB623B6B62
:10B6B0001B78042B3AD0052B00D1A7E0022B00D039
:10B6C000D8E03B6B1B69BB62714B1B889B027B62A2
:10B6D0003B6B5B881A1C7B6AD31A3B62BA6A7B6A33
:10B6E000D318BB623B6B9B881A1C7B6AD318FA6A1F
:10B6F000D318FB623B6A674A93420BD8F96A3B6AEC
:10B700009B08BA6A081C111C1A1CFFF725FC031CB5
:10B710007B63AFE0F96ABA6A80235B00081C111CE6
:10B720001A1CFFF719FC031C7B63A3E03B6B9A68B0
:10B730001E23FB18584912018A18083212881A80F1
:10B740003B6B9A681C23FB18534912018A18083274
:10B7500052881A803B6B9B684F4A1B01D3185B6869
:10B76000BB61BA69FB6A9A420AD11E23FB181B8887
:10B770001C22BA18128853433A6B5288934203D062
:10B780003B6B9B68022B14D180235B051B699BB22A
:10B79000F86A191C07F0C0FB031C1A1C3C4B1B88E1
:10B7A000D3187B617B69181CFFF7DAFB031C7B63F2
:10B7B00060E080235B051B699BB2F86A191C07F0E7
:10B7C000ABFB031C7B6180235B051B699BB21A1CCE
:10B7D0007B695343FA6AD31A9B083B617B695A1C05
:10B7E00080235B051B699BB25A433B6B5B88191C2A
:10B7F000FB6ACB18D31A9B08FB60386B79693A69EE
:10B80000FB68FFF71FFE031C7B6333E080235B05AF
:10B810001B699BB2F86A191C07F07EFB031CBB6016
:10B820003B6B9B881A1CFB6AD21880235B051B6943
:10B830009BB2191CBB684B43D31A9B087B60BB6847
:10B840005A1C80235B051B699BB25A433B6B9B8848
:10B85000191CFB6ACB18396B49885B18D31A9B08F3
:10B860003B60386BB9687A683B68FFF7EBFD031CF7
:10B870007B63C0467B6B002B02D1044B01229A7084
:10B880007B6B181CBD460EB080BDC046E82600206C
:10B89000BC270020FF030000C027002080B582B035
:10B8A00000AFFFF7C1FB2C4B00221A8080235B0501
:10B8B0001B699BB21A1CE52353431A1C274B1A60C1
:10B8C000274B00221A8000237B601CE0254B7A68FE
:10B8D00012010021D150234A7B681B01D318083381
:10B8E00000221A801F4A7B681B01D31808330022EC
:10B8F0009A801C4A7B681B01D318083300225A80A7
:10B900007B6801337B607B68002BDFD0164B0822FD
:10B910001A7080235B051B699BB21A1CE6235A43ED
:10B9200080235B051B699BB2101C191C07F084FB6C
:10B93000031C181CFFF714FB031C3B603B68002B27
:10B9400005D10A4B01229A70094B01221A703B68FB
:10B95000181CBD4602B080BDB4270020B8270020C7
:10B96000BC270020C0270020BF270020E826002099
:10B97000BE27002080B584B000AF78603960724B7C
:10B980001B7801225340DBB2002B01D00823D7E003
:10B990007B68002B01D10E23D2E03B68002B01D144
:10B9A0000E23CDE07B681B68002B01D10E23C7E07E
:10B9B0007B689A8880235B051B699BB29A4203D8F7
:10B9C0007B689B880F2B01D80723B9E07B68DB8855
:10B9D000002B2CD07B68DB881A1C7B689B88534328
:10B9E0001A1C5A4B1B68D21880235B051B699BB23B
:10B9F000191CE6234B439A4219D87B68DB881A1C32
:10BA00007B689B885A4380235B051B699BB29A42E3
:10BA10000FDD80235B051B699AB27B689B88101C35
:10BA2000191C07F0FFFA0B1C9BB2002B01D0072357
:10BA300086E07B689B88032213409BB2002B01D0D9
:10BA400007237DE0424B1B88012B01D1042377E0C3
:10BA50003F4B1B881A1C3B681A603C4B1A683B68BA
:10BA60005A603B4B1B88181C3B685A6839490301D4
:10BA7000CB185A60364B1B881A1C7B681968354BEB
:10BA80001201D150324B1B88181C7B689988314AAF
:10BA90000301D31808330A1C1A802D4B1B88181C6D
:10BAA0007B68D9882B4A0301D31808330A1C5A80B3
:10BAB0000E23FB1800221A807B689B881A1C7B6867
:10BAC000DB885343BB600E23FB181A880E23FB1838
:10BAD00001321A8080235B051B699BB21A1EBB686A
